:020000040800F2
:10000000000002206109000855090008FD510008A0
:1000100055090008550900085509000800000000AE
:10002000000000000000000000000000550900086A
:10003000550900080000000055090008815100081A
:100040005509000855090008550900085509000818
:100050005509000855090008550900085509000808
:10006000550900085509000855090008694D0008A0
:10007000754D0008D5340008814D00088D4D0008ED
:1000800005100108953E00085509000855090008AB
:1000900055090008550900085509000855090008C8
:1000A00055090008550900085509000855090008B8
:1000B00085010108910101089D010108C93E000860
:1000C00055090008D53E000855090008CDF900087B
:1000D000D9F90008390E0108650E0108990E0108CA
:1000E00055090008550900080000000055090008DE
:1000F0005509000855090008550900085509000868
:100100005509000855090008A9010108E5F900088A
:10011000CD0E0108010F0108550900085509000816
:10012000550900085509000809FA00083DFA0008B9
:10013000391001085509000855090008550900083B
:1001400000000000000000000000000000000000AF
:10015000550900085509000855090008350F010820
:10016000E13E00085509000891510008B55100080A
:1001700055090008D951000855090008550900081B
:100180005509000855090008690F01089D0F01086D
:10019000F1F90008FDF900085509000855090008A3
:1001A00055090008550900085509000855090008B7
:1001B0005D4A00085509000855090008550900085E
:1001C0005509000855090008550900085509000897
:1001D0005509000855090008550900085509000887
:1001E0005509000855090008550900085509000877
:1001F0005509000855090008550900085509000867
:100200005509000855090008550900085509000856
:100210005509000855090008550900085509000846
:10022000550900085509000855090008000000009C
:10023000550900085509000800000000550900088C
:100240005509000855090008550900085509000816
:100250005509000855090008550900085509000806
:1002600055090008550900085509000855090008F6
:100270005509000855090008D10F010800000000C9
:10028000550900085509000855090008000000003C
:08029000000000005509000800
:1002980010B5054C237833B9044B13B10448AFF3B8
:1002A80000800123237010BDE80300240000000033
:1002B8000045010808B5034B1BB103490348AFF3D8
:1002C800008008BD00000000EC0300240045010880
:1002D80081F0004102E000BF83F0004330B54FEAEF
:1002E80041044FEA430594EA050F08BF90EA020F5C
:1002F8001FBF54EA000C55EA020C7FEA645C7FEAEF
:10030800655C00F0E2804FEA5454D4EB5555B8BF11
:100318006D420CDD2C4480EA020281EA030382EA82
:10032800000083EA010180EA020281EA0303362D14
:1003380088BF30BD11F0004F4FEA01314FF4801CE7
:100348004CEA113102D0404261EB410113F0004FF9
:100358004FEA03334CEA133302D0524263EB4303B0
:1003680094EA050F00F0A780A4F10104D5F1200E4E
:100378000DDB02FA0EFC22FA05F2801841F10001A9
:1003880003FA0EF2801843FA05F359410EE0A5F17D
:1003980020050EF1200E012A03FA0EFC28BF4CF0AE
:1003A800020C43FA05F3C01851EBE37101F0004564
:1003B80007D54FF0000EDCF1000C7EEB00006EEB71
:1003C8000101B1F5801F1BD3B1F5001F0CD34908FB
:1003D8005FEA30004FEA3C0C04F101044FEA445252
:1003E80012F5800F80F09A80BCF1004F08BF5FEAD9
:1003F800500C50F1000041EB045141EA050130BDB9
:100408005FEA4C0C404141EB0101013C28BFB1F5CA
:10041800801FE9D291F0000F04BF01460020B1FA15
:1004280081F308BF2033A3F10B03B3F120020CDAE8
:100438000C3208DD02F1140CC2F10C0201FA0CF0C6
:1004480021FA02F10CE002F11402D8BFC2F1200C2B
:1004580001FA02F120FA0CFCDCBF41EA0C019040E1
:10046800E41AA2BF01EB0451294330BD6FEA04042A
:100478001F3C1CDA0C340EDC04F11404C4F1200215
:1004880020FA04F001FA02F340EA030021FA04F327
:1004980045EA030130BDC4F10C04C4F1200220FA7E
:1004A80002F001FA04F340EA0300294630BD21FABC
:1004B80004F0294630BD94F0000F83F4801306BF82
:1004C80081F480110134013D4EE77FEA645C18BF76
:1004D8007FEA655C29D094EA050F08BF90EA020F0D
:1004E80005D054EA000C04BF1946104630BD91EA05
:1004F800030F1EBF0021002030BD5FEA545C05D108
:100508004000494128BF41F0004130BD14F5800446
:100518003CBF01F5801130BD01F0004545F0FE41BA
:1005280041F470014FF0000030BD7FEA645C1ABFEF
:10053800194610467FEA655C1CBF0B46024650EA26
:10054800013406BF52EA033591EA030F41F4002152
:1005580030BD00BF90F0000F04BF0021704730B5D8
:100568004FF4806404F132044FF000054FF00001AD
:1005780050E700BF90F0000F04BF0021704730B56E
:100588004FF4806404F1320410F0004548BF404243
:100598004FF000013EE700BF42004FEAE2014FEA98
:1005A80031014FEA02701FBF12F07F4393F07F4F73
:1005B80081F06051704732F07F4208BF704793F076
:1005C8007F4F04BF41F40021704730B54FF4607489
:1005D80001F0004521F000411CE700BF50EA01028C
:1005E80008BF704730B54FF000050AE050EA010235
:1005F80008BF704730B511F0004502D5404261EBA5
:1006080041014FF4806404F132045FEA915C3FF4E5
:10061800D8AE4FF003025FEADC0C18BF03325FEA82
:10062800DC0C18BF033202EBDC02C2F1200300FA33
:1006380003FC20FA02F001FA03FE40EA0E0021FA58
:1006480002F11444BDE600BF53B94AB9002908BFF6
:1006580000281CBF4FF0FF314FF0FF3000F074B995
:10066800ADF1080C6DE904CE00F006F8DDF804E001
:10067800DDE9022304B070472DE9F047089D0446E0
:100688008E46002B4DD18A42944669D9B2FA82F23D
:1006980052B101FA02F3C2F1200120FA01F10CFA79
:1006A80002FC41EA030E94404FEA1C48210CBEFBB1
:1006B800F8F61FFA8CF708FB16E341EA034306FB3A
:1006C80007F199420AD91CEB030306F1FF3080F0C9
:1006D8001F81994240F21C81023E63445B1AA4B216
:1006E800B3FBF8F008FB103344EA034400FB07F7B8
:1006F800A7420AD91CEB040400F1FF3380F00A81F9
:10070800A74240F207816444023840EA0640E41BED
:1007180000261DB1D4400023C5E900433146BDE899
:10072800F0878B4209D9002D00F0EF800026C5E93B
:10073800000130463146BDE8F087B3FA83F6002E53
:100748004AD18B4202D3824200F2F980841A61EBCB
:10075800030301209E46002DE0D0C5E9004EDDE7E9
:1007680002B9FFDEB2FA82F2002A40F09280A1EBD1
:100778000C014FEA1C471FFA8CFE0126200CB1FB26
:10078800F7F307FB131140EA01410EFB03F088421F
:1007980008D91CEB010103F1FF3802D2884200F2AC
:1007A800CB804346091AA4B2B1FBF7F007FB10113E
:1007B80044EA01440EFB00FEA64508D91CEB0404DC
:1007C80000F1FF3102D2A64500F2BB800846A4EB37
:1007D8000E0440EA03409CE7C6F12007B34022FA22
:1007E80007FC4CEA030C20FA07F401FA06F31C4351
:1007F800F9404FEA1C4900FA06F3B1FBF9F8200C5E
:100808001FFA8CFE09FB181140EA014108FB0EF0A3
:10081800884202FA06F20BD91CEB010108F1FF3AF3
:1008280080F08880884240F28580A8F102086144FF
:10083800091AA4B2B1FBF9F009FB101144EA01410D
:1008480000FB0EFE8E4508D91CEB010100F1FF34B8
:100858006CD28E456AD90238614440EA0840A0FB50
:100868000294A1EB0E01A142C846A64656D353D026
:100878005DB1B3EB080261EB0E0101FA07F722FA4A
:1008880006F3F1401F43C5E9007100263146BDE873
:10089800F087C2F12003D8400CFA02FC21FA03F3D6
:1008A800914001434FEA1C471FFA8CFEB3FBF7F057
:1008B80007FB10360B0C43EA064300FB0EF69E427C
:1008C80004FA02F408D91CEB030300F1FF382FD215
:1008D8009E422DD9023863449B1B89B2B3FBF7F6BD
:1008E80007FB163341EA034106FB0EF38B4208D996
:1008F8001CEB010106F1FF3816D28B4214D9023ED7
:100908006144C91A46EA004638E72E46284605E7F4
:100918000646E3E61846F8E64B45A9D2B9EB0208C5
:1009280064EB0C0E0138A3E74646EAE7204694E755
:100938004046D1E7D0467BE7023B614432E7304688
:1009480009E76444023842E7704700BF684620F070
:1009580007018D46FEE7000008B50F4A0F4B9A4283
:1009680008D00F4A0C4B0D4852F8041B43F8041BDF
:100978008342F9D10B4A0C4B9A4206D01346002108
:10098800094A43F8041B9342FBD104F099FE13F083
:1009980099FA00F0AFFCFEE700000024E803002409
:1009A80038450108E8030024143A002470477047CA
:1009B80070477047704770472DE9F04705460C4669
:1009C80016469946DDF82080099F91F804A0BAF1EF
:1009D800000F00F0B5800B7F7F2B14BF4FF0000A8B
:1009E8004FF0010AFF2B2DD0DFED5A7AFDEEE77AA2
:1009F80017EE904ABAF1000F20D033786BB33B78EA
:100A0800002B7FD0D8F80030B3F57A7F7CDC6B6898
:100A180023F00202012A52D0337883F001033370A5
:100A2800002B14BF042301230B9A13700023C8F86A
:100A380000303B7001210A9803F0D0F83B78002B76
:100A48006AD061E004F046FC07EE900AF8EE677A97
:100A580094ED087A77EEC77AC8E76B68032B2BD832
:100A6800DFE803F0021E211E00232B6100232B6206
:100A780001226A602B776B7795F8243003B9AB6154
:100A8800002389F800306B6823F00203012BB6D0ED
:100A980001210A9803F0A2F8012389F80030AEE793
:100AA80002236B60E8E72B68012B02D003236B60FD
:100AB800E2E785F82430E3E700236B60DCE7032BEB
:100AC8001DD8DFE803F00210131000232B61002368
:100AD8002B6201226A602B776B7795F82430002B04
:100AE8009AD1AB6198E702236B60F6E72B68012B7C
:100AF80002D003236B60F0E785F824308CE70023ED
:100B08006B60EAE701233B70D8F800300133B3F596
:100B18007A7F06DCC8F80030B4F57A7F06DABDE8DB
:100B2800F0870023C8F800303B70F5E700213170EA
:100B380001230B9A137069600A9803F04FF8EEE7E7
:100B48000B7FFF2B3FF47EAF3B78002BE7D00024D0
:100B5800DAE700BF0000000070B52DED028B0446F7
:100B6800B0EE408A4568012D33D9437F73B3D0ED89
:100B78000A8AF1EE688AA66907EE906AF8EE676A53
:100B88009FED8F0A66EE806A9FED8E0A26EE800A38
:100B980013F02EF8F0EE407A84ED050A022D71D09C
:100BA800032D00F0B5809FED880A25F00205012D80
:100BB80000F0038194ED047ADFED847AB4EEE77AED
:100BC800F1EE10FA4CBF012300231AE0D0ED0A8A97
:100BD800D1E7D0ED067AB8EE677A9FED790A27EE6D
:100BE800007A9FED780A27EE000A13F001F884EDE9
:100BF800050A012D0AD09FED740A6568002DD4D12D
:100C0800002384F82530BDEC028B70BDD4ED047A46
:100C1800FCEEE77AA36817EE902A03EB820368EEEE
:100C2800007AC3ED007AA36940F2AE42934201D83C
:100C38000133A361D4ED047ABCEEE77A84ED087A37
:100C4800B7EE007A77EE877AC4ED047AE368013B61
:100C580007EE103AB8EE477AF4EEC77AF1EE10FADA
:100C680040F3A88002236360B7EE007A77EEC77A74
:100C7800FCEEE77AC4ED087A9FED530A84ED040A86
:100C8800656892E794ED047ABCEEC77A17EE103ADD
:100C9800A26802EB830393ED000A40F2AE4296424B
:100CA8000CD8B7EE007A77EE677A67EE887A77EE37
:100CB800807AC3ED007AA3690133A361D4ED047A85
:100CC80078EEA78AC4ED048A236A013B07EE903ABE
:100CD800F8EE677AF4EEE78AF1EE10FA0FDD0023FA
:100CE800236194F82430002B87D02368012B84D10A
:100CF800002384F8243003226260A361C0E7F5EE84
:100D0800C08AF1EE10FA7FF578AFC4ED047AE8E70F
:100D180094ED047ABCEEC77A17EE103AA26802EB9B
:100D2800830393ED000A2268022A08D0032A2DD0F3
:100D380068EE277A77EE807AC3ED007A03E068EEF2
:100D4800277AC3ED007AA36940F2AE42934201D8F4
:100D58000133A361D4ED047A78EEA78AC4ED048A3E
:100D6800236A013B07EE903AF8EE677AF4EEE78AD9
:100D7800F1EE10FA15DD002323612368012B7FF4BF
:100D88003CAF022363600023A36179E768EE277A0A
:100D98009FED0F7A20EE077A77EE877AC3ED007A17
:100DA800D1E7F5EEC08AF1EE10FA7FF526AFC4ED73
:100DB800047AE2E79FED040A1FE7002321E700BF5A
:100DC8000E745A3ADB0FC93F000000000000964538
:100DD800F304353F2DE9F04F2DED068B85B0044621
:100DE8000D461646AA4F384602F0BCF8A94802F04C
:100DF800B9F8DFF804B3584602F0B4F8DFF8FCA2FB
:100E0800504602F0AFF8DFF8F882404602F0AAF840
:100E1800DFF8E092A04B0393A04B0293A04B019301
:100E2800A04B0093A04BA14A39464846FFF7C4FDA2
:100E38009F4FA04B0393A04B0293A04B0193A04B51
:100E48000093A04BA04A93493846FFF7B5FD9AF89E
:100E58001C30FF2B14BF0023012389F81D3098F89C
:100E68001C30FF2B14BF002301237B779BF81C80C9
:100E7800964802F001F8B0EE409A954801F0FCFF60
:100E8800B8F1FF0F4CD0DFED937AB4EEE79AF1EEAC
:100E980010FA6AD4DFED907AB4EEE79AF1EE10FA20
:100EA80000F1AB80F5EE007AB4EEE79AF1EE10FAB5
:100EB80000F1A680DFED897AB4EEE79AF1EE10FA38
:100EC80000F1A180DFED867AB4EEE79AF1EE10FA30
:100ED80000F19C80DFED837AB4EEE79AF1EE10FA28
:100EE80000F19780DFED807AB4EEE79AF1EE10FA20
:100EF80000F19280DFED7D7AB4EEE79AF1EE10FA18
:100F080000F18D80DFED7A7AB4EEE79AF1EE10FA0F
:100F1800B0EE049AF0EE087A58BFB0EE679A26E071
:100F2800F6EE007AB4EEE79AF1EE10FA17D8F1EE81
:100F3800087A29EE279AF0EE007A39EE679AF6EEEB
:100F4800007AB4EEE70AF1EE10FA0BD8F1EE089A3F
:100F580060EE299AF0EE007A79EEE79A7EE039EEB3
:100F6800099AECE770EE009A78E0B8EE009ADFEDA7
:100F7800597AB4EEE70AF1EE10FA53D4DFED567A57
:100F8800B4EEE70AF1EE10FA6DD4F5EE007AB4EE9D
:100F9800E70AF1EE10FA69D4DFED507AB4EEE70A09
:100FA800F1EE10FA65D4DFED4E7AB4EEE70AF1EE11
:100FB80010FA61D4DFED4B7AB4EEE70AF1EE10FADD
:100FC8005DD4DFED497AB4EEE70AF1EE10FA59D4B0
:100FD800DFED467AB4EEE70AF1EE10FA55D4DFED0C
:100FE800447AB4EEE70AF1EE10FAF0EE049AF0EE65
:100FF800087A58BFF0EE679A16E0BFEE089AB6E78F
:10100800BFEE009AB3E7BEEE009AB0E7B6EE009ADC
:10101800ADE7B7EE009AAAE7B7EE089AA7E7B0EEF1
:10102800009AA4E7F8EE009A324BB5EEC09AF1EEBA
:1010380010FA4CBF012200225A77F0EEC97AC3EDAC
:101048000A7A1B4BF5EEC09AF1EE10FA4CBF01225A
:1010580000225A77F0EEE97AC3ED0A7A002E00F002
:10106800CC80002779E0FFEE089ADDE7FFEE009AD2
:10107800DAE7FEEE009AD7E7F6EE009AD4E7F7EE45
:10108800009AD1E7F7EE089ACEE7F0EE009ACBE7A0
:10109800500400247404002440050024180500248A
:1010A80004040024480400240C050024F00500244E
:1010B800C40500246C0500242C0500240504002424
:1010C8004C0400240D050024F1050024F405002437
:1010D8002C060024CDCC4C3D9A99193E3333B33EAF
:1010E8006666E63ECDCC0C3F3333333FCDCC4C3F28
:1010F8006666663F98050024AC0600246406002452
:10110800880600244FEA8709236803EB8703D3ED99
:10111800008A636803EB870393ED00AA674B1B788B
:10112800002B5CD09FED668A664B1B78002B5ED047
:101138009FED630A2B684B4478EE288A78EE808A04
:10114800C3ED008A6B684B4438EE0A8A38EE008A91
:1011580083ED008A0137BE424FD05B4812F0AEFAE9
:101168005A4B83ED000A5A4812F0A8FA594B83EDFE
:10117800000AB8F1FF0FC5D1574BD3ED007A39EE0D
:10118800677A9FED566A27EE067A37EE277A83ED5F
:10119800007A534BD3ED006A79EEE67A67EE867AE9
:1011A80077EEA67AC3ED007A4E4BB5EEC07AF1EE33
:1011B80010FA4CBF012200225A77B0EEC77A83EDAD
:1011C8000A7A494BF5EEC07AF1EE10FA4CBF0122CB
:1011D80000225A77F0EEE77AC3ED0A7A92E7B0EE8A
:1011E800680A4048FFF7B8FCB0EE408A9CE7B0EECA
:1011F8004A0A3D48FFF7B0FC9CE73A4B5B6823F08E
:101208000203012B11D02D4B1B7813BB364B5B68A7
:1012180023F00203012B2CD02A4B1B78002B3CD146
:1012280005B0BDEC068BBDE8F08F284BD3ED007AF6
:10123800B6EE007A67EE877A77EE877AF4EEC77AA9
:10124800F1EE10FACCBF01210021284802F0C6FCBB
:10125800DCE71E4B93ED007AF6EE007AB4EEE77AFF
:10126800F1EE10FACCBF01210021204802F0B6FCB3
:10127800CCE7184BD3ED007AB6EE007A67EE877AA2
:1012880077EE877AF4EEC77AF1EE10FACCBF012137
:101298000021174802F0A2FCC2E70E4B93ED007A3A
:1012A800F6EE007AB4EEE77AF1EE10FACCBF01213F
:1012B80000210F4802F092FCB2E700BFF0050024BD
:1012C80000000000F105002440050024100500245A
:1012D8006C050024140500240400002482A87B382F
:1012E8000800002498050024C405002418050024DB
:1012F8002C050024F0B52DED068BB5B0B34C0021BC
:10130800204600F081FB0421204600F07FFA3021BE
:10131800204600F09BFA204600F094FAB0EE408A8E
:101328001EAA48A80B2302F8503CFF2302F84F3CA2
:10133800002342F84C3C42F8483C42F8443CA2F1B5
:101348003C030B211970FF215970002159609960E5
:10135800D96014339342F4D154328242E2D102224A
:101368009B4B19680AA801F027FE0222994B1968BD
:101378001FA801F021FE954F07F11804042302224B
:101388000AA9204601F028FE204602F02DF8002187
:10139800204602F03FF80646384600F073FADFEDC3
:1013A8008E8A8E4DF0EE680A00231A46314628468A
:1013B80001F0DCFC0121204602F02CF806463846F4
:1013C80000F060FA864CF0EE680A00231A463146AF
:1013D800204601F0CBFC0DF1080C0FCDACE80F0056
:1013E80095E80F008CE80F00DFED7E9A0022F7EEFB
:1013F800000AB0EE690A02A97B4801F00DFD02ADB2
:101408000FCC0FC594E80F0085E80F000022F7EE17
:10141800000AB0EE690A02A9744801F0FDFCDFED8C
:10142800748A0124009423462246B0EE680A714962
:101438000968714801F076FD009423462246B0EE13
:10144800680A6E4909686E4801F06CFD00942346ED
:101458000022B0EE680A6B4909686B4801F062FD2A
:10146800009423460022B0EE680A68490968684873
:1014780001F058FD009423460022B0EE680A654941
:101488000968654801F04EFD644F00260096334612
:10149800224663490968384602F0AEFA614D009663
:1014A8003346224660490968284602F0A5FA3146C3
:1014B800384602F093FB3146284602F08FFB5B4D1D
:1014C80085ED048AF7EE007A87EE88AA85ED05AAED
:1014D8009FED579A85ED029A4FF07C576F60EF6049
:1014E800C5ED069AB0EE490A284612F09DFA85ED38
:1014F800070A2E7085F8294085F82840F7EE088AF3
:10150800C5ED028AB0EE680A284612F08DFA85ED1C
:10151800070A2C70474D85ED048A85ED05AA85EDEF
:10152800029A6F60EF60C5ED069AB0EE490A284648
:1015380012F07AFA85ED070A2E7085F8294085F8A9
:101548002840C5ED028AB0EE680A284612F06CFA07
:1015580085ED070A2C70384A384BD360384B9360B6
:10156800002243F8042B374A9342F9D1324A002328
:10157800536013601377537782F8243093614FF0E8
:101588007E519162304A1370304B1960304A2B4BB0
:10159800D360304B9360002243F8042B2E4A9342C9
:1015A800F9D12B4A0023536013601377537782F8DD
:1015B800243093614FF07E519162284A1370284B72
:1015C80019602849014800F01DF9FEE79804002435
:1015D800883F01088C3F01086F12033B0804002470
:1015E8002804002400000000F40500242C06002430
:1015F80000007A44983F0108500400249C3F0108E9
:1016080074040024843F0108AC060024903F0108BC
:1016180064060024943F0108880600241805002465
:10162800A03F01082C050024A43F01084005002420
:101638000000C8426C0500249805002400E4570007
:1016480000905FC1FC1FBFC2F00500240400002405
:10165800C4050024000000C0FC8F5FC1F105002410
:1016680008000024DD0D00082DE9F0414E48002453
:1016780004600B260671FF2545718671C5710672D7
:1016880045728672C572067345738673C573446165
:10169800046280F8286080F82950C46204634463B7
:1016A80080F83C6080F83D5004644464846480F8A9
:1016B800586080F85950C4650466446604673B4F17
:1016C8003A463B4912F0B6F9DFF830813A464146CE
:1016D800384812F0AFF93A464146374812F0AAF9AD
:1016E800364806724572C46004614461DFF81081AF
:1016F8003A46414612F09EF9314806724572C46076
:10170800046144613A46414612F094F92D48067244
:101718004572C460046144613A46414612F08AF950
:10172800294806724572C460046144613A464146DC
:1017380012F080F9254806724572C460046144615C
:101748003A46414612F076F9214B1E705D705C6096
:101758009C60DC601F4B1E705D705C609C60DC6090
:101768001D4C3A4621461D4812F064F93A46214676
:101778001B4812F05FF91B4C3A4621461A4812F0F2
:1017880059F93A462146194812F054F9184C3A4684
:101798002146184812F04EF93A462146164812F0EA
:1017A80049F9BDE8F08100BF980400240000002436
:1017B800BB09000898050024C4050024500400242F
:1017C80074040024AC06002464060024880600245F
:1017D800180500242C050024BD0900084005002434
:1017E8006C050024B7090008080400242804002414
:1017F800B9090008F40500242C060024BF090008D4
:10180800B5090008143001F07DBA00BF38B500F101
:10181800140504462DED028B284601F01FFA2846D0
:1018280001F018FA2846B0EE408A01F001FAD0ED2E
:10183800007AF8EE677A88EE277ABDEC028B84EDA1
:101848001B7A38BD143001F005BA00BF38B500F175
:10185800140504462DED028B284601F0EDF92846C3
:1018680001F0F8F92846B0EE408A01F0E1F9D0ED30
:10187800007AF8EE677A88EE277ABDEC028B84ED61
:101888001B7A38BD90ED1B0A704700BF10B540F2B7
:1018980003338EB000244FF60B7240F20341ADF8CB
:1018A800083009A80123ADF81020ADF824202246FD
:1018B800ADF80C100094029907940C94CDE90544F6
:1018C800CDE90A4402F098F804A8012322460399B6
:1018D800009402F091F809A802F074F910B90120F7
:1018E8000EB010BD04A802F06DF9A0420CBF022092
:1018F80020460EB010BD00BF2DE9F04103239AB079
:101908004FF0010800254FF60B740746CDE914384F
:10191800394BADF84C40CDE91053A3F19F63A3F5C3
:101928007D43CDE916581293FFF7B0FF40450646B0
:1019380023D0022842D040F60132304B07F158003C
:101948000BACADF82C200B991895CDF86480CDF828
:101958004A3000F0DBF810A907F1700003F08CFAA8
:10196800274B0FCB84E80F003A6F214607F114008C
:1019780001F026F91AB0BDE8F08110231F4A06A924
:1019880006908DF828300BAC1E4BCDF84A200793F3
:101998000295CDE91805CDE9080502A802F0A2FADA
:1019A8000823029A03A92046ADF80C608DF80E5062
:1019B800049605930B9500F0E9F8CCE740F601335F
:1019C800ADF82C4000200BACADF8183001210B4BC2
:1019D80042460095CDF84A302B460E95CDE91801C0
:1019E80006992046CDE90C5502F006F8294620460E
:1019F80002F0F4F8AFE700BF04020404040604038D
:101A0800403F01080704010B2DE9F04704462DED7E
:101A1800028B82B0002949D0012140F20112002333
:101A28000091ADF804208DF80630354A0127354B72
:101A380004F10409344904F13C08626040F202727E
:101A4800A36040F60663E16004F1280A2285A387B3
:101A58002782E762276403F0E9FD054603F03EFCB0
:101A68006946064650BB4DB304F150008DF8067028
:101A780003F05EFD072D3ED104F114052046FFF763
:101A88003BFF284601F0E6F82846B0EE408A01F010
:101A9800CFF8D0ED007AF8EE677A88EE277A84EDF1
:101AA8001B7A02B0BDEC028BBDE8F08740F201134F
:101AB80000918DF80610ADF80430B6E704F1500037
:101AC80003F036FD072D13D04946204602F0E0FD0D
:101AD8000EB9002DD0D15146504601F0C9FD4046FF
:101AE800414601F0C5FD04F1120000F079F9C3E7A1
:101AF800002EF0D1C0E74946204602F0C9FDBBE7F9
:101B08000508050905070506050A060630B585B066
:101B1800002504460122ADF80C102B4603990095C8
:101B280001F06AFF0121204602F058F8012003F075
:101B3800D3FB2946204602F051F8012003F0CCFBE4
:101B48000121204605B0BDE8304002F047B800BF8B
:101B580010B5C2F3002384B00C46017C8DF80D202B
:101B680043EA4402FA2402238DF80C2003AA0094C5
:101B780002F050FA18B10124204604B010BD044602
:101B88000A2003F0A9FB204604B010BD034670B537
:101B980043F8042B044684B007C983E80700A379F7
:101BA80083B91A210B461E22FA2523742046ADF864
:101BB8000C20022303AA009502F02CFA28B1012078
:101BC80004B070BD1B210B46EDE70A2003F084FB2F
:101BD8004FF4B85200950223ADF80C20204603AA12
:101BE800217C02F017FA0028E9D10A2003F074FBDF
:101BF80041F2027200950223ADF80C20204603AA98
:101C0800217C02F007FA0028D9D10A2003F064FBEE
:101C1800042200950223ADF80C20204603AA217C5B
:101C280002F0F8F90028CAD10A2003F055FB062271
:101C380000950223ADF80C20204603AA217C02F06F
:101C4800E9F90028BBD10A2003F046FB41F208223B
:101C580000950223ADF80C20204603AA217C02F04F
:101C6800D9F90028ABD10A20064603F035FB0095C8
:101C7800022303AA217C2046ADF80C6002F0CAF9C1
:101C880000289CD1304603F027FB009522790C23CD
:101C98002046002A8DF80C3003AA4FF0020314BF27
:101CA800622142218DF80D10217C02F0B3F9002841
:101CB80085D1304603F010FB2279D4E902310B4379
:101CC800DBB20AB943F0400362790AB143F020035A
:101CD8000E22FA258DF80D302046009502238DF846
:101CE8000C2003AA217C02F095F900287FF467AF45
:101CF8000A2003F0F1FA102200950223ADF80C2017
:101D0800204603AA217C02F085F900287FF457AF0A
:101D18000A2003F0E1FA122100950223ADF80C1015
:101D280003AA217C204602F075F900287FF447AF0A
:101D38000A2003F0D1FA012209212046FFF708FF03
:101D4800003818BF01203BE7F0B5102387B0234CBB
:101D5800012200250126002702A920460195CDE988
:101D680002234FF48052CDE904670BF097FC6420FE
:101D780003F04AFE02A94FF480522046CDE90467D9
:101D880002261027CDE902670BF088FC03221023F6
:101D980002A92046CDE9022300230422CDE9042329
:101DA8004FF480520BF07AFC40F23223042202A94D
:101DB800019310232046CDE90223019A01230592BD
:101DC8004FF4805204930BF069FC40F6060120465C
:101DD8000BF084FC284607B0F0BD00BFD8060024ED
:101DE8001C4B00221C494FF0400C30B5054689B009
:101DF8000220596007219A601A620124DA620A22D5
:101E08004FF4006EDC6006922022CDE90001042028
:101E18000821CDE9020103201021CDE904010820A1
:101E28006946C3E904024FF4C072181DC3E906C22B
:101E38004FF48052C3E909E20BF006FC38B9284692
:101E4800FFF782FF003818BF012009B030BD2046D7
:101E580009B030BDD406002440410052614A002137
:101E6800D0B513688EB00A91002B40F0B9805E4B54
:101E780001214FF683700C2411600221D3F8D4207D
:101E88000026032742F48052C3F8D420D3F8D42084
:101E980002F480520092009AD3F8E02042F0100237
:101EA800C3F8E020D3F8E02002F010020192019A72
:101EB800D3F8E02042F04002C3F8E020D3F8E02055
:101EC80002F040020292029AD3F8E02042F008029F
:101ED800C3F8E020D3F8E02002F008020392039A46
:101EE800D3F8E02042F48072C3F8E020D3F8E02071
:101EF80002F480720492049AD3F8E02042F080023F
:101F0800C3F8E020D3F8E02002F080020592059A99
:101F1800D3F8E02042F02002C3F8E020D3F8E02014
:101F280002F020020692069AD3F8E02042F004025A
:101F3800C3F8E020D3F8E0300C9403F004030793CF
:101F48000323079A0B93CDE9080108A9274805F050
:101F5800EFFE48F23712022308A925480C94CDE970
:101F68000823CDE90A6705F0E3FE4CF20372022369
:101F780008A920480C94CDE90823CDE90A6705F0A3
:101F8800D7FE40F2FF62022308A91B480C94CDE952
:101F98000823CDE90A6705F0CBFE4FF60C72022341
:101FA80008A916480C94CDE90823CDE90A6705F07D
:101FB800BFFE4FF63F02022308A911480C94CDE951
:101FC8000823CDE90A6705F0B3FE2022022308A9F9
:101FD8000A480C94CDE90A67CDE9082305F0A8FE64
:101FE8000EB0D0BDD006002400440258001002589C
:101FF80000180258000C025800200258001C025811
:10200800001402582DE9F04FDFF8108406460D46FB
:10201800144608F118002DED028B89B000AF03F0CB
:1020280023F8D8F8183073B3D8F81C30D8F80490CF
:10203800002B43690BBF4FF0080A4FF0100A4FF00E
:10204800020B4FF0040BB9F1000F2AD0A200EA46A8
:10205800012B02F1070222F00702ADEB020D6846E0
:10206800ADEB020D694600F03F81022B00F0D680EF
:10207800002B6FD02246C847D5462437BD46BDEC55
:10208800028BBDE8F08FD8F81C30002BF5D0D8F8BB
:1020980004904FF0080A4FF0020B4369B9F1000FA2
:1020A800D4D1FB61D8F80030BB61002BE5D0D5480E
:1020B80003F04CF86B46BBF1020F786108EE103A5A
:1020C800FB6900F083816A465146A2EBC40295463B
:1020D8006200EA46B2FBFBF2AAEBC40085460AEBB3
:1020E8008200EE46F861ADEB010DF8690EEB820C4B
:1020F800C7F810C0EC46ADEB010D00EB8201CCF83F
:102108000400CCF8081001EB82013869E946CCF8E4
:102118000C1000EB8201CCF800A001EB8202C9E9A7
:1021280000E0C9E90212012B00F06483022B00F0E1
:102138006C82002B00F08081620849466046BB69CA
:10214800984718EE103A24379D46BD46BDEC028BE1
:10215800BDE8F08F002C8DD01A46D8ED0C6A9FEDA3
:10216800B27A8446331D36F922E00CF1080C07EEEA
:1021780090EA33F922E00232F8EEE77A944267EE09
:10218800877A67EEA67A4CED027A07EE90EAF8EEC7
:10219800E77A67EE877A67EEA67A4CED017AE2D89D
:1021A800F9612246C847984ED8ED0D6A0020F969B2
:1021B8002B1D9FED9E7A9FED9E6ADFED9E5A22E0D1
:1021C800F4EEC67AF1EE10FAC0F2C88447F6FE7251
:1021D800D1ED017A45F8202066EEA77AF4EEC77AA9
:1021E800F1EE10FA40F2F080F4EEC67AF1EE10FA51
:1021F800C0F2D58447F6FE7243F820200230083139
:1022080084427FF639AFD1ED007A66EEA77AF4EE14
:10221800C77AF1EE10FAD3D83246D9E7002C3FF44A
:1022280029AFD8ED0C6A84469FED787A0022331DD9
:102238008E4656F822100CF1080C07EE901A53F847
:1022480022100232F8EEE77A944267EE877A67EE58
:10225800A67A4CED027A07EE901AF8EEE77A67EE66
:10226800877A67EEA67A4CED017AE2D87146224663
:10227800C7F81CE0C847664ED8ED0D6A0020F9691A
:102288002B1D9FED6A7A9FED6A6ADFF894C120E002
:10229800F4EEC67AF1EE10FAC0F279843246D1ED46
:1022A800017A45F8202066EEA77AF4EEC77AF1EEB7
:1022B80010FA40F28780F4EEC67AF1EE10FAC0F216
:1022C8005E84324643F820200230083184427FF68B
:1022D800D3AED1ED007A66EEA77AF4EEC77AF1EEC6
:1022E80010FAD5D86246DAE7002C3FF4C3AED8ED31
:1022F8000C6A86469FED477A4FF0000C331D56F85E
:102308002C200EF1080E82F40002A2F5000207EE5E
:10231800902A53F82C200CF1020CF8EEE77A82F49C
:1023280000026445A2F5000267EE877A67EEA67A96
:102338004EED027A07EE902AF8EEE77A67EE877A92
:1023480067EEA67A4EED017AD9D8F9612246C847D8
:10235800314ED8ED0D6A0020F9692B1D9FED337AB7
:102368009FED336ADFF8BCC01FE0F4EEC67AF1EEE9
:1023780010FAC0F2FC833246D1ED017A45F82020EC
:1023880066EEA77AF4EEC77AF1EE10FA18D9F4EEF1
:10239800C67AF1EE10FAC0F2DA83324643F820200A
:1023A8000230083184427FF667AED1ED007A66EEDE
:1023B800A77AF4EEC77AF1EE10FAD6D86246DBE7D0
:1023C8006246EBE762467DE7324615E7A100D6464E
:1023D8006208073121F00701ADEB010DEA46ADEBCC
:1023E800010D6946ADEB0E0D0AEB8200EC46ADEB34
:1023F8000E0D01EB8202F861E946CCE900A0C9E9BB
:10240800001290E6280700240280FFFF0000003039
:102418000082FF7F0000003482FF7F000C07002449
:10242800007E00807E0080FF0000003804FF7FBF30
:1024380004FF7F3F00FEFF46002C00F0C982BBF17D
:10244800020FD8F8242000F0FA827969C7F80490BE
:1024580002EB810E5FED0C5A8A00DCF808100EF1D1
:1024680004007A611A46DCF80C303B61331DD7F85A
:1024780010903D61FD69C7E902CB8C46834636F969
:102488002210D8ED0C7A06EE101A33F9221006EE57
:10249800901A3EF92210B8EEC66A07EE101AF8EE46
:1024A800E66A3BF92210B8EEC77A26EE256A66EE90
:1024B800A56A27EE257A26EE276A66EEA76A27EE32
:1024C800277A07EE901A51080232F8EEE77A0AEBFB
:1024D8008100944280ED006A05EB810067EEA57AE1
:1024E800C0ED006A0CEB810009EB810180ED007AF8
:1024F80098ED0C7A67EE877AC1ED007ABFD8D7F8E5
:1025080004903D69D7E902CB60466208BB69494639
:102518009847D8F82C307A69D8ED0D6A1A441FED1F
:102528003D7A1FED3D6A2B1D904602F1040A5FEDCE
:102538003F5A0022A84ED9E900EC51E0F4EEC67AE1
:10254800F1EE10FAC0F2C78247F6FE7045F8220095
:102558000CEB0100D0ED007A66EEA77AF4EEC77AAC
:10256800F1EE10FA4BD9F4EEC67AF1EE10FAC0F299
:10257800BA8247F6FE70BBF1020F43F822002BD057
:10258800D9F808000844D0ED007A66EEA77AF4EE90
:10259800C77AF1EE10FA36D9F4EEC67AF1EE10FAEF
:1025A800C0F2CD8247F6FE7048F82200D9F80C0038
:1025B8000144D1ED007A66EEA77AF4EEC77AF1EE1F
:1025C80010FA1ED9F4EEC67AF1EE10FAC0F2AF8214
:1025D80047F6FE714AF82210023294427FF6B1ADF6
:1025E80051080EEB81008900D0ED007A66EEA77ADB
:1025F800F4EEC77AF1EE10FAA0D83046A6E73046D6
:10260800B9E73146E6E73046CEE7002C00F0E08136
:10261800BBF1020FD8F8243000F0E1817A69DCF8C8
:10262800081003EB820EC7F804909300DFED6B5A95
:102638000EF1040000227B61DCF80C303B61331D95
:10264800D7F810903D61FD69C7E902CB8C468346F7
:1026580056F82210D8ED0C7A07EE101A53F822100B
:10266800B8EEC76A07EE101A5EF82210F8EEC76ACD
:1026780007EE101A26EE256A5BF82210B8EEC77A24
:1026880066EEA56A26EE276A27EE257A66EEA76A21
:1026980027EE277A07EE901A51080232F8EEE77A09
:1026A8000AEB8100944280ED006A05EB810067EE39
:1026B800A57AC0ED006A0CEB810009EB810180ED81
:1026C800007A98ED0C7A67EE877AC1ED007ABFD868
:1026D800D7F804903D69D7E902CB60466208BB6928
:1026E80049469847D8F82C307A69D8ED0D6A1A44CB
:1026F8009FED3E7A9FED3E6A131D9246DFF8E4C0D7
:102708000022FB612B1D364ED9E9008E4EE0F4EE17
:10271800C67AF1EE10FAC0F2FC81304645F8220084
:102728000EEB0100D0ED007A66EEA77AF4EEC77AD8
:10273800F1EE10FA49D9F4EEC67AF1EE10FAC0F2C9
:10274800EF813046BBF1020F43F822002AD0D9F8B6
:1027580008000844D0ED007A66EEA77AF4EEC77A4E
:10276800F1EE10FA35D9F4EEC67AF1EE10FAC0F2AD
:10277800C98130464AF82200D9F80C000144D1ED4D
:10278800007A66EEA77AF4EEC77AF1EE10FA1ED94F
:10279800F4EEC67AF1EE10FAC0F2AD813146F8696E
:1027A80040F82210023294427FF6CBAC510808EB75
:1027B80081008900D0ED007A66EEA77AF4EEC77A38
:1027C800F1EE10FAA3D86046A8E76046BAE761467A
:1027D800E5E76046CEE700BF0280FFFF000000305B
:1027E8000082FF7F007E00800000003404FF7FBF6E
:1027F80004FF7F3F002C00F0EB807A690021D8F8B5
:102808002430C7F8109003EB820ED7F81C90930081
:10281800FD610EF104021FED0C6A7B61331D154644
:1028280056F821204808D8ED0C6ABBF1020F82F453
:102838000002A2F5000207EE902A53F8212082F444
:102848000002B8EEE77AA2F5000227EE067A07EE54
:10285800902A0AEB8002F8EEE77A27EE267A67EEEE
:10286800867A82ED007A09EB80024FEA800067EEF3
:10287800A67AC2ED007A27D05EF8212082F4000201
:10288800A2F5000207EE902A55F8212082F40002F2
:10289800B8EEE77AA2F5000227EE067A07EE902A4C
:1028A800DCF80820F8EEE77A024427EE267A67EE8D
:1028B800867A82ED007A98ED0C7ADCF80C2067EEC7
:1028C800877A0244C2ED007A02318C42A8D8D7F840
:1028D800109060466208BB694946FD699847D8F878
:1028E8002C307A69D8ED0D6A1A441FED407A1FED35
:1028F800406A131D9246DFF8C4C20022FB612B1DFB
:10290800AB4ED9E9008E4EE0F4EEC67AF1EE10FA3D
:10291800C0F2C580304645F822000EEB0100D0ED2C
:10292800007A66EEA77AF4EEC77AF1EE10FA49D982
:10293800F4EEC67AF1EE10FAC0F2BF803046BBF171
:10294800020F43F822002AD0D9F808000844D0ED35
:10295800007A66EEA77AF4EEC77AF1EE10FA35D966
:10296800F4EEC67AF1EE10FAC0F2AE8030464AF8BC
:102978002200D9F80C000144D1ED007A66EEA77A5E
:10298800F4EEC77AF1EE10FA1ED9F4EEC67AF1EE3B
:1029980010FAC0F28B803146F86940F822100232F2
:1029A80094427FF6CEAB510808EB81008900D0ED48
:1029B800007A66EEA77AF4EEC77AF1EE10FAA3D899
:1029C8006046A8E76046BAE76146E5E76046CEE7B5
:1029D800224649466046BB699847FFF7B2BBC7F82D
:1029E80010B0002298ED0C6A331DDFED726AD7F83B
:1029F8001CB0786956F8221007EE901A53F8221086
:102A0800B8EEE77A07EE901A51080232F8EEE77A44
:102A180027EE267A0AEB810E94420BEB810167EED2
:102A2800A67A27EE067A67EE867A8EED007AC1EDF1
:102A3800007ADFD88300D7F810B07B614DE61A46DC
:102A4800C7F810B098ED0C6A331DDFED5B6AD7F854
:102A58001CB0786936F9221007EE101A33F92210E3
:102A680007EE901AB8EEC77A51080232F8EEE77A04
:102A780027EE267A0AEB810E94420BEB810167EE72
:102A8800A67A27EE067A67EE867A8EED007AC1ED91
:102A9800007ADFD88300D7F810B07B6134E5F0EE18
:102AA800675AFEEEE45A15EE900A34E7F0EE675ADC
:102AB800FEEEE45A15EE901A6EE7F0EE675AFEEE57
:102AC800E45A15EE900A3AE7F0EE675AFEEEE45A39
:102AD80015EE900A4BE767EEA57AFDEEE77A17EE5A
:102AE800900A00B232E567EEA57AFDEEE77A17EEB6
:102AF800900A00B23FE5F0EE675AFEEEE05A15EE96
:102B0800901A4CE6F0EE675AFEEEE05A15EE900A7F
:102B180030E6F0EE675AFEEEE05A15EE900AFDE553
:102B2800F0EE675AFEEEE05A15EE900A0AE667EEF6
:102B3800A57AFDEEE77A17EE901A09B24AE567EE34
:102B4800A57AFDEEE77A17EE900A00B22CE5F0EED2
:102B5800675AFEEEE45A15EE902A1FE467EEA57A4E
:102B6800FDEEE77A17EE902A12B2FFF731BBF0EECE
:102B7800675AFEEEE45A15EE902AFFF7FDBBF0EE19
:102B8800675AFEEEE05A15EE902AFFF79BBBF0EE6F
:102B9800675AFEEEE05A15EE902AFFF780BB67EE03
:102BA800A57AFDEEE77A17EE902A12B2FFF724BB5A
:102BB80082FF7F0000000030000000387E0080FFA8
:102BC80030B5184C154685B0046004F1080EEC4683
:102BD8000FC98EE80F00D4ED047AF5EEC07A8CE8C0
:102BE8000F00F1EE10FA1ADDB7EE006A94ED057ADF
:102BF80027EE277AC6EE276A84ED0D7AC4ED0C6AB3
:102C08006DB1204640F8185F02F02EFA06490369B4
:102C18000020064A2162A262E36005B030BD0120AF
:102C280005B030BD0C070024002000300000003043
:102C380000680830704700BFB1F5807F03680A4616
:102C480028BF4FF48072B1F5807F9A6094BF00204E
:102C5800012070470068183002F066BA70B5046841
:102C68008AB0A369E1600BB304F118056FF0F4139F
:102C78004FF60B722846ADF80C20CDE9013302F06F
:102C8800F3F98446EE46E668BCE80F00AEE80F00AC
:102C9800BCE80F00AEE80F009CE803008EE80300D4
:102CA80069462846049602F0E7F838BBE06918B38D
:102CB80004F11C056FF0F4134FF60B722846ADF8BB
:102CC8000C20CDE9013302F0CFF98446EE46E468E2
:102CD800BCE80F00AEE80F00BCE80F00AEE80F003C
:102CE8009CE803008EE8030069462846049402F035
:102CF800C3F8003818BF01200AB070BD01200AB01F
:102D080070BD00BF30B5046883B00D46E3694BB1B0
:102D1800A3680020E26A616A9B00009004F11C002D
:102D280002F0A4F9A3680748A26A9B00216A0090F0
:102D380004F1180002F09AF90020C4E9005003B029
:102D480030BD00BF0D20000810B4074B4FF07E5176
:102D580030240022032019619C60D8605DF8044B80
:102D68005961C3E9062270470C070024F6EE007A81
:102D78009FED166A20EE207A0160F7EE006A80ED7A
:102D8800036A80ED020A27EE277AC6EE877AF4EE08
:102D9800E67AF1EE10FA11DDF0EE667A4FF07E5128
:102DA8004FF0000C02760022C0ED017AC0F814C082
:102DB800016143768276C0ED070A7047F4EEC67A61
:102DC800F1EE10FAEAD5F0EE467AE7E700000000E7
:102DD8000268037E128807EE902AFBEEC87A1BB1C0
:102DE800B7EE007A77EE677AD0ED056A90ED047A4F
:102DF80077EEE67A437E67EE877A0BB1F1EE677A73
:102E080090ED030A90ED017A77EEC07AA7EE270AD3
:102E180080ED030A704700BFDFED167A8C46B4EEEA
:102E2800670A10B504468646F1EE10FA2DED028BBE
:102E380080ED080A48BFB0EE670AC0ED090AB0EE97
:102E4800608A80F83420BCE80F00AEE80F009CE8E8
:102E58000F008EE80F0010F065FEF0EE407AB0EE3D
:102E6800480AC4ED0A7A10F05DFE84ED0B0ABDEC49
:102E7800028B10BD95BFD63390F8343010B5044698
:102E8800032B4BD8DFE803F03B2A1502FFF7A0FF1E
:102E980060EE006AD4ED087A94ED097A26EE800A8D
:102EA80037EE677AE0EE077AC4ED0C7AB0EE670A7F
:102EB80010BDFFF78DFF94ED0A7AD4ED0B7A77EE0B
:102EC800C77AA0EE277AB0EE470A10F0B9FDF0EE07
:102ED800407A84ED0C0AB0EE670A10BDFFF778FF60
:102EE800D4ED087A94ED097A20EE000A37EE677A75
:102EF800E0EE077AB0EE670AC4ED0C7A10BDFFF772
:102F080067FFD4ED087A94ED097A37EE677AE0EE38
:102F1800077AB0EE670AC4ED0C7A10BDD0ED0C7AD2
:102F2800C4E700BFB0B51D4682B004461746A5F1F8
:102F38000105069BADF80410B5FA85F5009302F07B
:102F4800C9F9002201996D09206004F10800009B6D
:102F58006771227122776577069202B0BDE8B040AA
:102F680000F04ABD10B5044602F0B4F90021226809
:102F78002171824200D110BD0346012204F10800EC
:102F88002360227100F01EFE227F617F53005BB236
:102F980081B180F0010252B21343DBB27F2B237759
:102FA800E9D102F097F907EE900AF8EE677AC4EDD6
:102FB800087A10BD42B2EFE710B4002383B00324AF
:102FC800018080F8503080F85120C0E9014303B0F7
:102FD8005DF8044B704700BF2DE9F04FBE4F002449
:102FE800BE4D8DB0037007F140034260804616461F
:102FF8008946202221463846C5F88835C5F88475A3
:10300800CDE90244CDE90444CDE90644CDE90844BC
:10301800CDE90A4410F088FF2022214605F26250CB
:10302800C5F85145C5F85545C5F85945C5F85D4534
:1030380010F07AFF85F85065D8F8043085F86846AE
:10304800002B62D005F5AA6A09F1500B264609EB58
:10305800040128195222013610F058FF4FF00003DE
:1030680027F8023B1BF804300AF8013F002B70D008
:10307800D8F804304FF0010254349E4285F868268F
:10308800E5D3974A082195F850350026C5F88C25D0
:103098004FF4802293480027C5F8A4350023C5F8CB
:1030A80090250122C5F89C1595F86816C5F8943541
:1030B80085F8A035C5F89825C0E9006700293ED0F5
:1030C800C5F8B82585F8A13585F8A835002298F8FF
:1030D8000030C5F8BC25C5F8C025002B40D001221A
:1030E80000200121013B85F8C4257F4AC2E900017F
:1030F800082B37D8DFE813F0BD00C200C700CC00AA
:10310800D100D600DB00E200E900C5F89435F6B23C
:1031180085F8A0350020724B0021C5F8A465C5F8D4
:103128008C354FF48023C5F890350123C5F89835C0
:103138000823C5F89C3505F5B663C3E900010123EA
:1031480085F8A135002385F8A8350323C5F8B835D7
:10315800BCE7D8F804305434B3423FF678AF90E770
:1031680085F8C435614803F0B3F8034608B1FFBEDB
:10317800FEE702A95D48029303F00AFA0446002814
:1031880075D1042340F2FF720A90CDE9082395F81F
:103198005035002B00F0F58006234FF054090193B9
:1031A80009FB045393F85130072B07D8DFE803F0E5
:1031B800595C5653504D4A040723079326B206EB31
:1031C8004606C6EBC60605EB8608B700404600F083
:1031D80035FB09FB045393F85030042B00F3AD8002
:1031E800022B00F3C08000F0BC802B19002283F86A
:1031F800402515F8262098F80130002A7CD0022AAC
:1032080000F08D80012A40F0B480012B00F0B380DB
:10321800002B374B18BF0023059305A9019B3348A2
:10322800069302F055FC002840F0AE80013495F872
:103238005035E4B2A34240F2A4802E4B53F8243018
:103248000193ADE706230793B8E705230793B5E78E
:1032580004230793B2E703230793AFE702230793F7
:10326800ACE700230793A9E701230793A6E7FFBE6E
:10327800FEE70420402142E9020173E708206021AB
:1032880042E902016EE71020802142E9020169E764
:103298002020A02142E9020164E74020C02142E940
:1032A80002015FE78020E02142E902015AE74FF47A
:1032B80080704FF4807142E9020153E74FF40070C7
:1032C8004FF4907142E902014CE74FF480604FF4EB
:1032D800A07142E9020145E7004000304807002498
:1032E80000200240F80C0024180D0024D40C0024FF
:1032F8000002B025A83F0108062B36D0072B3CD08A
:10330800022B49D0032B49D0002B4BD0012B47D09F
:10331800042B49D0052B254B18BF00237CE7042B31
:1033280025D0052B2BD08BB3012B31D0022B31D0DC
:10333800032B1F4B18BF00236EE70323143705EB3D
:10334800040B4FF0000A2F448BF8403538460AF139
:10335800010A00F073FA9BF8403514375345F5DC41
:1033680047E70123EAE70223E8E7124B54E7124B49
:1033780052E7002350E7114B4EE7114B4CE7114B36
:103388004AE70DB0BDE8F08FFFBEFEE70E4B43E7FE
:103398000E4B41E70E4B3FE70E4B3DE70E4B3BE72D
:1033A8000E4B39E70E4B37E70E4B35E70000B84FA9
:1033B800002090360800900C1000C0102000F01477
:1033C8008000501D000180210004002A0008302ED2
:1033D800001060320040C03A0080F03E00005247C2
:1033E800000021430000844B38B5094C40F2FF72BD
:1033F8004FF0011104F28C55284603F077F894F841
:103408005025D4F884152846BDE8384002F0D6BDCA
:1034180048070024034B0F29D3F8840598BF00EB15
:103428004100704748070024244B02689A4200D0A4
:103438007047234A00232348D2F8D81030B5224CCD
:1034480041F0200183B0C4F8F0050920C4F8F8352C
:1034580004F5BE65C4F8F4054FF48060C2F8D810CE
:103468004FF40061D2F8D820C4F8000694F8680632
:1034780002F02002C4F8FC3598420192C4F8041600
:103488004FF40051C4F810362846C4F81436019B8E
:1034980014BF00234FF48073C4F80816C4F80C3620
:1034A80003F0A2FA08B1FFBEFEE704F28C53C4F899
:1034B800D855C4F8283603B030BD00BF00200240FC
:1034C800004402584000024048070024014804F024
:1034D800DDB800BF380D002402682DE9F84F504BC5
:1034E8009A4201D0BDE8F88F4E4D95F86836002B0A
:1034F800F8D095F85035002B7BD0002405F13C0915
:1035080005F2625605F5AA67A04613E003F001012B
:1035180017F811BCA9F1280000F060FBBBF1010FFE
:1035280025D895F85035013409F154090236A2B26C
:1035380093422BD917F8012F002AF4D0D5F88435F7
:103548000021327833F81400D5F8883503EB0413DA
:1035580023F81200338801339BB233805FFA83FA71
:103568003A789A42D2D88A46A6F80080D0E7CAF3B9
:103578004001A9F1140000F031FBBBF1020FCAF3BE
:103588008001CED0484600F029FBCAE7002395F811
:103598006806254909229842C5F8F8354FF4806035
:1035A800C5F8F015C5F8F4254FF400614FF4005242
:1035B800C5F8FC3508BF4FF48073C5F80006C5F898
:1035C8000416C5F8082600221848C5F80C36C5F8B0
:1035D8001026C5F8142603F007FA08B1FFBEFEE767
:1035E80095F85025D5F884151148BDE8F84F02F034
:1035F800E5BC0D4909224FF48060C5F8F835C5F8D7
:10360800F0154FF40061C5F8F4254FF40052C5F8E1
:10361800FC35C5F80006C5F80416C5F80826D2E733
:10362800002002404807002440000240380D0024D2
:10363800D40C0024704700BF0C4B4FF60B710022CE
:1036480003F5A8601980DA6099821A6219855A63AD
:1036580099879A64C3E90122C3E90622C3E90B22C8
:10366800C3E9102254339842ECD17047480700242C
:1036780084460FC98CE80F009CF800300B2B30D023
:103688009CF801200F2A2CD8022900B591B041D00E
:10369800032902D0012900D000210C91DCF8081080
:1036A800012902D0022918BF00210D91DCF80C1065
:1036B800022904D0032902D0012918BF00210A2BAE
:1036C8000E910FD85B4800EB8320CCF810000A2B32
:1036D80017D8DFE803F0A0928476685A4C3E30226F
:1036E800090070470020F0E7534BD3F8E01041F48D
:1036F8008061C3F8E010D3F8E03003F480630A93E4
:103708000A9B01230BA993400B9304F011FB11B002
:103718005DF804FB11210C91C0E7474BD3F8E0108A
:1037280041F40071C3F8E010D3F8E03003F40073FB
:103738000993099BE5E7404BD3F8E01041F4807109
:10374800C3F8E010D3F8E03003F480730893089BC3
:10375800D7E7394BD3F8E01041F08001C3F8E01007
:10376800D3F8E03003F080030793079BC9E7324B97
:10377800D3F8E01041F04001C3F8E010D3F8E0308E
:1037880003F040030693069BBBE72B4BD3F8E010EE
:1037980041F02001C3F8E010D3F8E03003F0200333
:1037A8000593059BADE7244BD3F8E01041F01001D9
:1037B800C3F8E010D3F8E03003F010030493049B3F
:1037C8009FE71D4BD3F8E01041F00801C3F8E01063
:1037D800D3F8E03003F008030393039B91E7164BFB
:1037E800D3F8E01041F00401C3F8E010D3F8E0305A
:1037F80003F004030293029B83E70F4BD3F8E01016
:1038080041F00201C3F8E010D3F8E03003F00203FE
:103818000193019B75E7084BD3F8E01041F00101D3
:10382800C3F8E010D3F8E03003F001030093009BE5
:1038380067E700BF000002580044025803780B2BCA
:103848002DD042780F2A2AD84168022910B590B0A5
:103858003ED0032902D0012900D000210C918168B3
:10386800012902D0022918BF00210D91C16802293F
:1038780004D0032902D0012918BF00210A2B0E9178
:103888000ED85B4C04EB832404610A2B17D8DFE8BD
:1038980003F009A0928476685A4C3E3022007047A3
:1038A8000024F1E7534BD3F8E01041F00101C3F8CD
:1038B800E010D3F8E03003F001030093009B0123EC
:1038C8000BA9204693400B9304F032FA10B010BDB8
:1038D80011210C91C3E7474BD3F8E01041F4806104
:1038E800C3F8E010D3F8E03003F480630A930A9B2E
:1038F800E5E7404BD3F8E01041F40071C3F8E0105D
:10390800D3F8E03003F400730993099BD7E7394BE8
:10391800D3F8E01041F48071C3F8E010D3F8E03038
:1039280003F480730893089BC9E7324BD3F8E0107F
:1039380041F08001C3F8E010D3F8E03003F08003D1
:103948000793079BBBE72B4BD3F8E01041F04001EE
:10395800C3F8E010D3F8E03003F040030693069B69
:10396800ADE7244BD3F8E01041F02001C3F8E01094
:10397800D3F8E03003F020030593059B9FE71D4B28
:10398800D3F8E01041F01001C3F8E010D3F8E030AC
:1039980003F010030493049B91E7164BD3F8E0104F
:1039A80041F00801C3F8E010D3F8E03003F0080351
:1039B8000393039B83E70F4BD3F8E01041F0040116
:1039C800C3F8E010D3F8E03003F004030293029B3D
:1039D80075E7084BD3F8E01041F00201C3F8E01096
:1039E800D3F8E03003F002030193019B67E700BFBF
:1039F800000002580044025810B592B0ADF8041007
:103A08000180C9B2149C0B29C460C0E901233FD0CE
:103A180090F801C0BCF10F0F3AD8022A3FD0032A10
:103A280002D0012A00D000220E92012B02D0022BD4
:103A380018BF0023022C0F932CD0032C2AD0012C62
:103A480028D000230A29109327D85C4A02EB812248
:103A580002610A2914D8DFE801F0A39587796B5D24
:103A68004F4133250600564BD3F8E01041F48061EE
:103A7800C3F8E010D3F8E03003F480630C930C9B98
:103A880001230DA9104603FA0CF30D9304F050F925
:103A980012B010BD0A291094D7D90022D8E71122F4
:103AA8000E92C2E7464BD3F8E01041F40071C3F818
:103AB800E010D3F8E03003F400730B930B9BDFE7BF
:103AC8003F4BD3F8E01041F48071C3F8E010D3F80D
:103AD800E03003F480730A930A9BD1E7384BD3F89C
:103AE800E01041F08001C3F8E010D3F8E03003F0B3
:103AF80080030993099BC3E7314BD3F8E01041F0E9
:103B08004001C3F8E010D3F8E03003F04003089315
:103B1800089BB5E72A4BD3F8E01041F02001C3F821
:103B2800E010D3F8E03003F020030793079BA7E7E2
:103B3800234BD3F8E01041F01001C3F8E010D3F89C
:103B4800E03003F010030693069B99E71C4BD3F86B
:103B5800E01041F00801C3F8E010D3F8E03003F0BA
:103B680008030593059B8BE7154BD3F8E01041F04C
:103B78000401C3F8E010D3F8E03003F00403049321
:103B8800049B7DE70E4BD3F8E01041F00201C3F827
:103B9800E010D3F8E03003F002030393039B6FE7D0
:103BA800074BD3F8E01041F00101C3F8E010D3F857
:103BB800E03003F001030293029B61E70000025822
:103BC8000044025808B5012143780069994089B238
:103BD80004F0B0FA003818BF012008BD01230A46D6
:103BE8004178006903FA01F189B204F0A9BA00BF6B
:103BF80010B5002386B0122204460493CDE90223AF
:103C08000368022B1FDC002B01DB042305932379B7
:103C18000A2B1FD8114800EB83206279012301A9E0
:103C28009340019304F084F8A3790A2B14D80B4825
:103C380000EB8320E279012301A99340019304F06A
:103C480077F806B010BD032BE1D10623059323793D
:103C58000A2BDFD90020E0E70020EBE7000002583C
:103C6800634A0368934210B58CB028D0614A9342E6
:103C780058D0614A934200F09480604A934201D040
:103C88000CB010BD5E4C5F48D4F8E03043F002033E
:103C9800C4F8E030D4F8E03003F002030A930A9B3A
:103CA800FFF7A6FFD4F8F43043F08003C4F8F430EB
:103CB800D4F8F43003F080030B930B9BE0E7504CEF
:103CC8005148D4F8E03043F00203C4F8E030D4F8A7
:103CD800E03003F002030193019BFFF789FFD4F85A
:103CE800E83000221F2043F400131146C4F8E830DE
:103CF800D4F8E83003F400130293029BD4F8D830C8
:103D080043F00103C4F8D830D4F8D83003F00103E5
:103D18000393039B02F0B6FC1F200CB0BDE81040D3
:103D280002F0EEBC364C3948D4F8E03043F080035A
:103D3800C4F8E030D4F8E03003F080030493049B27
:103D4800D4F8E03043F00203C4F8E030D4F8E030AF
:103D580003F002030593059BFFF74AFFD4F8E83008
:103D68000022212043F480031146C4F8E830D4F837
:103D7800E83003F480030693069BD4F8D83043F068
:103D88000103C4F8D830D4F8D83003F001030793FE
:103D9800079B02F077FC21200CB0BDE8104002F030
:103DA800AFBC1B48FFF724FF154B00224820D3F86F
:103DB800E840114644F40004C3F8E840D3F8E8406A
:103DC80004F400040894089CD3F8D84044F0010493
:103DD800C3F8D840D3F8D83003F001030993099BFE
:103DE80002F050FC48200CB0BDE8104002F088BC3E
:103DF8000054004000580040005C0040001C00587F
:103E08000044025858100024B80D0024980E0024CD
:103E1800780F00242DE9F0431A4B87B000254FF0A6
:103E280010099E46EC46184BFF22E04667461A707A
:103E38000EF118060EF13004CDE90055CDE9025512
:103E4800ADF80090BCE80F00CDE90455AEE80F00CE
:103E58009CE803000095ADF800908EE80300B8E8F0
:103E68000F000FC69CE803000095ADF8009086E8A7
:103E780003000FCF0FC49CE8030084E8030007B0D9
:103E8800BDE8F0830C000024B40D002410B5EFF356
:103E9800108472B6084B1A78120602D504B962B6B5
:103EA80010BD1878054B40B2C0EBC00003EB4010C2
:103EB800143003F0EBFBF1E7B40D0024B80D002437
:103EC800014805F077BA00BF440E0024014805F008
:103ED80071BA00BF240F0024014805F06BBA00BF77
:103EE800041000242DE9F0430D6885B0404EC5EB61
:103EF800C503032D4FEA431706EB4313036041DC68
:103F0800CA680C46012A3DD84FEAC5084CD020683B
:103F18009C466168A8EB0509A2680DF1100EE368DC
:103F280006EB4919ACE80F00324B227C8CF80020D4
:103F3800D9F808C00FCB0EE90F000EEB8503BCF1D2
:103F4800010F53F8103CC9F88C3032D0BCF1020F85
:103F580043D0BCF1000F36D0227C8C37A8EB050586
:103F680000233744520006EB451601213846C6F8AF
:103F7800AC30C6E92521C6E92733C6E9293304F060
:103F8800DBFE18B1012005B0BDE8F08301463846D4
:103F980005F01CFA0028F5D10146384605F040FA2C
:103FA800003818BF0120EEE70A7C103A672AAED91C
:103FB800E8E701F039FB104B98420CBF0F4B104B50
:103FC800C9F89030C8E701F02FFB0B4B98420CBFA3
:103FD8000C4B0D4BC9F89030BEE701F025FB064BA2
:103FE80098420CBF094B0A4BC9F89030B4E700BFA0
:103FF800B80D0024503F0108000E27072D0FB030E0
:104008003211D0205F4390608A62E030200BA0100C
:104018001A0980102DE9F041D0F8008082B00D46D1
:1040280017461E4608F18C04204605F0CBF92028D7
:10403800FAD1D8F80C3073B96D002046089C334685
:104048003A46A9B2009404F0CDFE003818BF01200A
:1040580002B0BDE8F081089B32463946204605F09B
:104068007FF8F2E7094B6FF0F41110225960C3F89A
:10407800E4101A7483F8F020C3F8C41183F8D0212F
:10408800C3F8A41283F8B022704700BFB80D00240B
:1040980030B5002395B04FF48071062204460B9387
:1040A80006921393CDE90C13CDE90E33CDE9113304
:1040B80001F0BCFA07282BD004F1100541F2883230
:1040C80006A9284606F0EAF928B10123184684F81B
:1040D8005C3015B030BD0222022306A92846CDE97E
:1040E800002310220123CDE9022300224FF480038C
:1040F800CDE9042305224FF0807306926A460F9398
:1041080041F2883306F036FB0028DED115B030BD09
:104118000323012084F85C3015B030BD0000000096
:1041280070B50023A4B04FF080724FF48075044638
:10413800ADF806300D93CDE910320122CDE90E53CA
:10414800CDE91223CDE91433002943D0F02300F13F
:10415800100508AEADF80630C02341F2883231466A
:104168002846089306F09AF928B10123184684F8DE
:104178005C3024B070BD41F288320DF1060128464A
:1041880006F0F6F903460028EFD105224FF48071B6
:104198001E93284616924FF080721B9321931F920C
:1041A80002AA9FED1F7BCDE91C13CDE922338DEDCB
:1041B800027B9FED1D7B41F2883316A98DED047BB0
:1041C8009FED1B7B8DED067B06F0D4FA0028CCD141
:1041D80024B070BD00F1100508AE612341F28832A9
:1041E80031462846089306F059F90028BDD141F216
:1041F80088320DF10601284606F038FA0028B4D1B5
:10420800BDF80630204623F0780343F04003ADF8AC
:104218000630FFF73DFF00289ED0A6E7AFF30080E9
:104228000000000001000000100000000100000074
:1042380000000000000040002DE9F04F00234FF47B
:10424800807501264FF0807804462DED028BABB0C7
:104258008DF8073013932193299314950E96CDF872
:104268005C80CDE91533CDE91863CDE91A33CDE982
:104278002253CDE92433CDE9273306231C9301F0DB
:10428800D5F9072808D004F1100741F288321CA993
:10429800384606F003F940B10123184684F85C302B
:1042A8002BB0BDEC028BBDE8F08F4FF0020A4FF047
:1042B800020B4FF0050941F2883308AA1CA93846B9
:1042C800CDF89480CDF870909FED2F8BCDE908AB99
:1042D8004FF0000A4FF4800B8DED0A8BCDE90CAB43
:1042E80006F048FA0028D7D141F2883238460EA99C
:1042F80006F0D4F80028CFD1402341F288320DF1DE
:10430800070138468DF8073006F032F90028C3D186
:1043180041F288330EA902AA3846CDF83890CDF874
:104328005C809FED1B7BCDE906AB8DED027B9FED9D
:104338001A7B8DED047B06F01DFA03460028ABD1ED
:10434800CDF870904FF00109CDF894804FF0000837
:10435800219308AA29931CA938462295CDE923332D
:10436800CDE9273341F288338DED0A8BCDE90CABCB
:10437800CDE9088906F0FEF9002891D0304684F886
:104388005C608DE7AFF300801000000001000000C2
:104398004000000043000000008000000100000011
:1043A8002DE9F04F00234FF4807601254FF08078F7
:1043B80004462DED028BABB0CDE915331393219351
:1043C800299314960E95CDF85C80CDE91853CDE964
:1043D8001A33CDE92263CDE92433CDE92733062307
:1043E8001C9301F023F9072808D004F1100741F2C3
:1043F80088321CA9384606F051F840B10123184606
:1044080084F85C302BB0BDEC028BBDE8F08F4FF028
:10441800020A4FF0020B4FF0050941F2883308AA4F
:104428001CA93846CDF89480CDF870909FED308B5C
:10443800CDE908AB4FF0000A4FF4800B8DED0A8BE5
:10444800CDE90CAB06F096F90028D7D141F28832B5
:1044580038460EA906F022F80028CFD1402341F2B1
:1044680088320DF1070138468DF8073006F080F8DC
:104478000028C3D19DF8073008AA0C90FF200893A4
:104488004FF400430EA90B95CDF83890CDF85C8019
:10449800CDE909034FF4800338460D9341F2883380
:1044A80006F068F903460028A8D100222193299331
:1044B8001CA938462296CDF87090CDF89480CDE9A5
:1044C8002333CDE927330123CDE9022341F2883391
:1044D80002AA8DED048BCDE906AB06F04BF9002856
:1044E80090D0284684F85C508CE700BFAFF300807A
:1044F800100000000100000070B50122AAB00446B7
:104508000D465F48C02103F01BFE00265D4B069652
:104518005B4895FAA5F5CDE90466D3F8E02042F0AA
:104528002002C3F8E020C022D3F8E03003F02003D3
:1045380001930123019902A9CDE9022303F0F8FBB5
:10454800142001F061FA3246C0214D4803F0F8FD0D
:10455800142001F059FA0122C021494803F0F0FD66
:10456800142001F051FA0123474AE6612261C4E9A7
:104578000533002D77D0B5FA85F1013900234FF4C2
:10458800807604F11005C4E908162846C4E90B33FF
:1045980005F016FF30B101231D4684F85C3028462B
:1045A8002AB070BD66231690179041F28832139096
:1045B8000EA91B900E93CDE91460CDE91900284689
:1045C80005F06CFF0028E6D199230EA941F2883244
:1045D80028460E9305F062FF0028DCD1052301214F
:1045E800249008AA219027901C934FF08073CDE95E
:1045F8002260CDE928001020259341F28833CDE9C7
:104608000A019FED1D7B00204FF48001CDE90C01CC
:104618001CA928468DED087B06F0ACF80028BAD115
:104628002046FFF7BDFE0028B5D1284605F024FF37
:1046380005460028AFD123790A2B18D963790121BF
:10464800994003F0AFFCA3790A2B0ED80F4800EB72
:1046580083200126E17906FA01F103F0A3FC26661E
:1046680084F864609BE71F2188E70020F1E707488A
:1046780000EB8320E2E700BF00000000010000001B
:10468800001402580044025800500052000002581A
:104698002DE9F041684CA2B00D46046000F0C6FF59
:1046A80007284BD028682346AA68696807C3AA89DF
:1046B800184620F8042B267B677B05F0DDFE0028D2
:1046C80034D1012E94F8643014BF4FF480154FF4A0
:1046D80000052366002B39D0584B95FAA5F52361C0
:1046E8000123C4E905330023E361002D6ED0B5FA38
:1046F80085F1013900234FF480785148C4E908183E
:10470800C4E90B3305F05CFE80B966230B90139067
:1047180041F2883206A90693CDE90C80CDE90E0056
:10472800CDE91100464805F0B9FEA0B101231D46A8
:1047380084F85C30284622B0BDE8F08101250323C7
:10474800284684F85C3022B0BDE8F081294620462E
:10475800FFF7D2FEC0E7992341F2883206A938480C
:10476800069305F09BFE0028E0D105231C901990C4
:104778006A4614934FF08073219014A91D9341F257
:1047880088339FED277BCDE91A80CDE91F008DED99
:10479800007B9FED257B2A488DED027B9FED247BD6
:1047A8008DED047B05F0E6FF0028BFD13146224895
:1047B800FFF7B6FC0028B9D11F48FFF73DFD0546B5
:1047C8000028B3D127B102232366B3E71F2191E75D
:1047D800EB2300260027189014934FF440631F9092
:1047E80006AA1B934FF40053209014A917934FF473
:1047F800404313481C93A023CDF8688016930623E2
:1048080019934FF0805321934FF04073CDE9066719
:104818001D9306F027F80028D5D087E7AFF300806E
:10482800000000000100000010000000010000006E
:104838000000000000004000381100240050005221
:10484800481100245E4B02682DE9F0419A428CB071
:104858004FF00004CDE90744CDE909440B9402D098
:104868000CB0BDE8F081574B574DD3F8D420574FC3
:1048780042F48042564EDFF85C81C3F8D420D3F866
:10488800D42002F480420092009ADA6F42F4804207
:10489800DA67DA6F22F48042DA67D3F8E02042F070
:1048A8004002C3F8E020D3F8E02002F04002019271
:1048B800019AD3F8E02042F02002C3F8E020D3F8B0
:1048C800E02002F020020292029AD3F8E02042F09F
:1048D8001002C3F8E020D3F8E02002F0100203929F
:1048E800039AD3F8E02042F00202C3F8E020D3F89C
:1048F800E03003F002030493049B22E014F0FC026E
:1049080052D103F1200155F8211008780A2839D826
:1049180091F801C00121099207EB802201FA0CF1FC
:1049280007910221CDF81480089103210A910CA95E
:104938000B4413F81C3C07A9104601340B9303F0F1
:10494800F7F92A6EE3B2002AD8D0052B2CD803F148
:104958001A0255F822100A780A2A18D94978012229
:104968008A40022107920022CDE9081203210A9108
:104978000CA90B4496E803000590ADF8181013F83D
:104988001C3CD8E74878012109928140C8E748785B
:10499800012107EB82228140022007910021CDE905
:1049A800080103210A91E3E700225C20114601F087
:1049B80069FE5C2001F0A4FE0CB0BDE8F08100BFE8
:1049C80000500052004402583811002400000258D8
:1049D800E83F01080A0A090A0268F8B5194B9A4221
:1049E80000D0F8BD184A0024184F0125D2F8D43059
:1049F800174E23F48043C2F8D43011E014F0FC0FB2
:104A08001BD157F821301A780020597801340A2A26
:104A180005FA01F198BF06EB822089B203F0C2FAC9
:104A2800E3B23A6E03F12001002AE7D0052B03F127
:104A38001A0202D857F82230E5E75C20BDE8F840B2
:104A480001F06CBE00500052004402583811002496
:104A580000000258014805F091BF00BF481100242A
:104A68000E4B6FF0F4120021981C30B41C1D9D1DD4
:104A78009A605D671C67C3E90022C3E9181103F156
:104A88000A0203F1080130BCC3E91A30C3E91E1257
:104A9800C3E92030C3E92212704700BF381100244F
:104AA80038B5036871B9026A00F1280500F5AC74DD
:104AB800012A0CBF002140218BBB1D4B5722C0F897
:104AC80058310DE0426A00F1C00500F5E874012A8A
:104AD8000CBF00214021EBB1164B5A22C0F8D0314F
:104AE80000232046C4E901214FF480524FF480612D
:104AF800636262614FF48042C4E903314FF480730A
:104B0800C4E906234FF40033236201F06DFF58B166
:104B1800FFBEFEE7084B5822C0F8D031E0E7074B4C
:104B28005922C0F85831DBE7C5E92044A56338BDF0
:104B38001000024070000240280002405800024065
:104B48002DE9F043C28889B081468388ADF80020FA
:104B58000089B9F80A10B9F80C20ADF80230D9F874
:104B68001830ADF80400ADF80610ADF80820002B99
:104B78003FD0D9F81C70B7FA87F77F0901250223BF
:104B88006C460DF10A06DFF870800695CDE904350C
:104B980099F8042020788242627818D0D9F8001059
:104BA800F9B1012902D1F8B10A2107910A2805FAB9
:104BB80002F203A994BF08EB80200020039203F0BF
:104BC800B7F80234A642E3D109B0BDE8F08399F8FA
:104BD80005109142E2D1002FF3D0D9F80010002936
:104BE800DFD106210791E1E7022A0CBF08210A213B
:104BF800DBE70127C2E700BF00000258534A0368F9
:104C0800934230B505468BB055D02032934252D0EE
:104C18004F4A934204D02032934201D00BB030BDAA
:104C28004C4C4D48D4F8E03043F00103C4F8E03070
:104C3800D4F8E03003F001030593059BD4F8E03085
:104C480043F00803C4F8E030D4F8E03003F0080378
:104C58000693069BD4F8E03043F04003C4F8E030F4
:104C6800D4F8E03003F040030793079BD4F8F03002
:104C780043F40003C4F8F030D4F8F03003F4000330
:104C88000893089BFFF75CFFD4F8D830296843F0F5
:104C980001032F4A3048C4F8D830891AD4F8D830DC
:104CA80018BF012103F001030993099B0BB0BDE86C
:104CB8003040FFF7F5BE274C2848D4F8E03043F0E1
:104CC8000103C4F8E030D4F8E03003F001030093A6
:104CD800009BD4F8E03043F01003C4F8E030D4F877
:104CE800E03003F010030193019BD4F8E03043F067
:104CF8004003C4F8E030D4F8E03003F040030293F6
:104D0800029BD4F8F03043F48003C4F8F030D4F8B0
:104D1800F03003F480030393039BFFF711FFD4F8EB
:104D2800D830296843F00103084A0C48C4F8D83041
:104D3800891AD4F8D83018BF012103F0010304936D
:104D4800049B0BB0BDE83040FFF7AABE04580140F1
:104D5800045C01400044025824140024C8110024B3
:104D6800014802F093BC00BF20130024014802F060
:104D78008DBC00BF98130024014802F087BC00BF17
:104D88007C150024014802F081BC00BFF415002402
:104D98001A4A0368934210B40BD02032934208D0C9
:104DA800174A934216D02032934213D05DF8044B31
:104DB8007047144B0022D3F85442C3F85822002CF1
:104DC800F4D0D3F84802D3E9931223465DF8044B94
:104DD800520818470B4B0022D3F8B044C3F8B42448
:104DE800002CE3D0D3F8AC24D3F8A814D3F8A40447
:104DF800520823465DF8044B184700BF0458014089
:104E0800045C0140C8110024184A0368934210B496
:104E18000BD02032934208D0154A934217D0203243
:104E2800934214D05DF8044B7047124BD3E9942495
:104E38005208C3F85822002CF4D0D3E99201234633
:104E480001EB820100EB82005DF8044B1847094B27
:104E5800D3F8AC24D3F8B0445208C3F8B424002CD7
:104E6800E0D0D3F8A814D3F8A404E8E70458014024
:104E7800045C0140C81100242DE9F0470C684FF488
:104E88001776774F86B004FB06F6012C07EB060869
:104E9800C0F8008000F39F8000230D468E46C4466C
:104EA800C8F85032C8E9923369A3D3E900236AA14C
:104EB800D1E90001CDE9022306AB03EB8403CDE978
:104EC800040153F810AC53F8089CBEE80F00ACE896
:104ED8000F00BEE80F00ACE80F009EE80300C8F81A
:104EE80028A0C8F8C0908CE803002B69042B0CD8C4
:104EF800DFE803F078828C9603004FF41773594A61
:104F080003FB04739A64C3F8E020AA692B6A002A99
:104F180042D0002B4FF4177308BF022203FB04731F
:104F280018BF0322DA6201221A63EA696B6A002A4F
:104F38003FD1191E4FF4177318BF012103FB0473E7
:104F4800C3E931126969012943D0022947D10325F0
:104F580000214FF4177306F128002A46019103FB3C
:104F68000473002438445C645C63DC65C3F8DC408B
:104F7800C3F8CC40C3F8F440C3E90F44C3E915446F
:104F8800C3E93544C3E93B44022308F0FDF801991D
:104F980000284FD0FFBEFEE7191E4FF4177318BF45
:104FA800012103FB0473C3E90B12EA696B6A002A47
:104FB800BFD0002B4FF417730CBF0222032203FB50
:104FC8000473C3F8C4200122C3F8C8206969012901
:104FD800BBD10225BDE7012006B0BDE8F08700255A
:104FE8002946B6E74FF417734FF4FA5203FB0473DC
:104FF8009A64C3F8E02088E74FF417734FF47A52A5
:1050080003FB04739A64C3F8E0207EE74FF4177338
:105018004FF4FA4203FB04739A64C3F8E02074E780
:105028004FF417734BF6803203FB04739A64C3F88A
:10503800E0206AE706F1C00002232A46384408F057
:10504800A3F80028C8D0FFBEFEE700BFAFF300807A
:1050580004580140045C014024580140245C01408C
:10506800C8110024007701000068704770B5046813
:1050780082B015460E46C4F85032C4E99212069A18
:10508800C4F85422A269012A26D0626A012A9AB277
:1050980011D0294604F1C000019208F02FF9236AC3
:1050A800019A012B10D0294604F1280008F026F9AE
:1050B800002002B070BD04F1C000019208F0B0F900
:1050C800236A019A012BEED1314604F1280008F039
:1050D800A7F9002002B070BD226A012A9AB211D045
:1050E800294604F12800019208F008F9636A019A38
:1050F800012B10D0294604F1C00008F0FFF8002069
:1051080002B070BD04F12800019208F089F9636AC1
:10511800019A012BEED1314604F1C00008F080F964
:10512800002002B070BD00BF03681B69042B05D8BE
:10513800044A02EB830393ED000A70479FED020ACD
:10514800704700BFF03F010800803B470368D3F871
:1051580058027047064B6FF0F4124FF60B71C3E913
:1051680001229981A3F86812C3E99822704700BF09
:10517800C8110024704700BF08B500F033FCBDE833
:10518800084001F047BB00BF064808B503680BB1EB
:1051980002F0DAFF044803681BB1BDE8084004F0D8
:1051A8006BB908BD981B002488160024064808B56A
:1051B80003680BB102F0C8FF044803681BB1BDE8DF
:1051C800084004F059B908BD981B0024881600242B
:1051D800064808B503680BB102F0B6FF0448036837
:1051E8001BB1BDE8084004F047B908BD981B00246E
:1051F80088160024364BDA6A520062D59A6A9A6A8F
:105208009A6A9B6A180600D500BE314B9B6A9906BC
:1052180000D500BE2E4B9B6ADA0600D500BE2C4B8B
:105228009B6A1B0700D500BE294B9B6A980700D5CF
:1052380000BE274B9B6AD90700D500BE244B9B6A4A
:105248001A0400D500BE224B9B6A9B0400D500BE01
:105258001F4B9B6AD80400D500BE1D4B9B6A1905DD
:1052680000D500BE1A4B9B6A5A0500D500BE184BE4
:105278009B6A9B0500D500BE154B9B6AD80500D5D7
:1052880000BE134B9B6A990100D500BE104B9B6A68
:10529800DA0100D500BE0E4B9B6A1B0300D500BE89
:1052A8000B4B9B6A580300D500BE094B9B6A9903B8
:1052B80000D500BE064B9B6ADA0306D400BE00BECA
:1052C800FEE7DB6A9B07FAD5F8E700BEF6E700BF02
:1052D80000ED00E000F092BB00F096BB0A4B9B6823
:1052E80003F17843B3F5003F0BD3084B986848B1F6
:1052F8009868012806D09868022803D09B68032084
:1053080070470120704700BF00ED00E000008038C2
:105318002DE9F041CEB004464C2200210AA80EF037
:1053280003FE2022002102A80EF0FEFDC02200216B
:105338001EA80EF0F9FD022004F05CFF2368012B83
:105348004FF0000354D0584A02250193C820D16A6F
:10535800564B21F00101D162D26A02F0010201929A
:105368009A6942F440429A619B6903F4404301936D
:10537800019B4E4A93699B04FCD54D4902240022A7
:1053880001268B6A04274FF0080823F00303234300
:105398008B62052316900AA818934FF48033109651
:1053A800179419941597CDF86880CDE91B2221220E
:1053B800CDE91344CDE90A2305F080FC00B1FEE7EE
:1053C8003F220323294602A8CDE90223002208230D
:1053D800CDE9042340224023CDE9062340234FF49E
:1053E8008062CDE9082306F003F80346B8B1FEE76A
:1053F8002E4A04250093F02091692B4B41F440413B
:105408009161926902F440420092DA6A42F0010224
:10541800DA62DB6A03F001030093009BA9E720220C
:1054280026932E9380212C924FF480523193062597
:105438003F931EA8279236924FF4803225914FF45D
:1054480040113292479200222895802540911021E0
:10545800CDF888802B9720962A91CDE92F3440F2F9
:10546800271329934FF480632D930023CDE9234616
:10547800CDE93C234FF480740C23449402242193F7
:1054880007A3D3E90023CDE93445CDE91E2306F06F
:105498009BFA00B1FEE704F0D1FE4EB0BDE8F08102
:1054A8000F130F03000000000004005800480258C2
:1054B8000044025870B584B0012401F059F94FF442
:1054C80080764FF04052194B68460025ADF80040F1
:1054D8000396CDE9012301F069F919224FF0404301
:1054E80068468DF8082001938DF80F40ADF80D60DF
:1054F8008DF801408DF80A5001F058F902230B226B
:1055080068468DF80F508DF801304FF062538DF8D2
:1055180008200193ADF80D408DF80A4001F046F9D6
:10552800042001F033F904B070BD00BF0E00010380
:1055380030B50D46044685B0D1E9000184E8030082
:1055480000F020FAAB79002B63D00BF045FFFEF793
:1055580061FC0AF0F7F90BF0E3FB2B795BB3304CF5
:10556800636913F4803326D1C4F88430BFF34F8FB6
:10557800D4F8801043F6E07EC1F34E3CC1F3C90174
:105588004FEA4C1C0CEA0E000B4640EA8372013BC2
:10559800C4F860225A1CF8D1ACF1200C1CF1200F81
:1055A800F0D1BFF34F8F636943F480336361BFF376
:1055B8004F8FBFF36F8F6B79B3B1194A536913F4E7
:1055C800003311D1BFF34F8FBFF36F8FC2F8503242
:1055D800BFF34F8FBFF36F8F536943F400335361A9
:1055E800BFF34F8FBFF36F8F4FF0FF3200230024BC
:1055F800002569460B4802928DF80C30CDE900452C
:105608000AF0D4FD07480AF039FE09F037FB05B067
:1056180030BD2046FFF77CFE2046FFF74BFF94E79E
:1056280000ED00E08016002406F04AB81C4B9B6889
:1056380003F17842B2F5003F25D3B3F5803F20D37C
:1056480003F16042B2F5003F1FD303F15C42B2F5AB
:10565800002F1CD303F17042B2F5902F19D303F138
:105668004842B2F5803F16D303F18042B2F1806F11
:1056780013D303F1E043B3F5000F2CBF0820072034
:1056880070470120704700207047022070470320B0
:10569800704704207047052070470620704700BFF8
:1056A80000ED00E003480023034A044903600EF0BC
:1056B800C1B900BF80160024000000247D510008F5
:1056C80010B4204C0022204B83B0D4F888101F4817
:1056D80041F47001C4F8881019681D4C41F00101AB
:1056E80019601A61196808401A4918609A61DA61E4
:1056F8001A629A62DA621A635A639A63DA631A64FC
:105708005A64186820F4802018601A66D3F8DC20E0
:1057180042F06042C3F8DC20D3F8DC300193019BEF
:1057280023681940B1F1005F03D20B4B0122C3F883
:105738000821044B4FF000629A6003B05DF8044BF7
:10574800704700BF00ED00E0004402587FEDF6EA24
:105758000010005C0000FFFF0080005100F2C4410F
:10576800D0F8080508F0F0BD01EBC10300EB830396
:10577800D0F80805D3F8882208F016BE01EBC1035B
:1057880000EB8303D0F808059A6C08F047BE00BF09
:10579800D0F8080508F0F0BE016910B5044619B143
:1057A800022900D0FEE70121D4F8080508F0C4FE5C
:1057B800D4F80805BDE8104008F090BE10B50446BE
:1057C800D0F8080508F0BCFE2268D2F8003E43F085
:1057D8000103C2F8003E236A23B1034A136943F068
:1057E8000603136110BD00BF00ED00E0D0F8080506
:1057F80008F0B6BED0F8080508F0E4BED0F80805F1
:1058080008F0CABED0F8080508F0F2BED0F80805BE
:1058180008F0F0BE9446D0F8C8021A4608B56346A8
:1058280004F0E4FB032802D8024B185C08BD0320EF
:1058380008BD00BF14400108D0F8C80208B504F03C
:1058480057FC032802D8024B185C08BD032008BD8A
:1058580014400108D0F8C80208B504F08DFC0328EC
:1058680002D8024B185C08BD032008BD144001088B
:105878000A06D0F8C83206D401EBC10103EB810156
:1058880091F87E02704701F07F0101EBC10103EB43
:10589800810191F83E007047D0F8C80208B504F0BD
:1058A8008FFB032802D8024B185C08BD032008BDF3
:1058B80014400108D0F8C80208B504F0F7FB032823
:1058C80002D8024B185C08BD032008BD144001082B
:1058D800D0F8C80208B504F0C7FB032802D8024B69
:1058E800185C08BD032008BD14400108D0F8000367
:1058F80009F07EB9D0F8000309F092B9D0F8000396
:1059080009F09AB9704700BFD0F8000309F080B9D0
:10591800D0F8000309F080B9D0F8D40308B503F033
:105928008DF8032802D8024B185C08BD022008BD78
:1059380018400108704700BF0F4B1B780BB90120B6
:10594800704710B504464FF47A700C4AB0FBF3F375
:105958001068B0FBF3F000F0F5FE0F2C00D808B18A
:10596800012010BD002221464FF0FF3000F08AFED2
:10597800034B00201C6010BD5C0000245400002470
:105988006000002410B50320124C00F069FE05F0F9
:105998008FFC114B11499A699B69C2F3032203F0EA
:1059A8000F038A5CCB5C02F01F020D4903F01F0352
:1059B800D04020FA03F308600E202360FFF7BCFFF5
:1059C80010B10124204610BD0446FFF7B3FF20465E
:1059D80010BD00BF580000240044025804400108CC
:1059E80054000024034A044B11681B780B441360CD
:1059F800704700BF9C1E00245C000024014B1868FF
:105A0800704700BF9C1E002438B50446FFF7F6FF18
:105A18000546631C02D0044B1B781C44FFF7EEFFBD
:105A2800431BA342FAD338BD5C000024014B18681D
:105A3800000C70470010005C704700BF806B08B511
:105A4800FFF7FAFF08BD00BF836B5A6D12F0500FC5
:105A58005A6D10B51DD1196842F400725A650A686A
:105A680012F0080FCA681BD012F4406F0DD1CA6833
:105A780094040AD45A6D22F480725A655A6DD1047E
:105A880003D45A6D42F001025A651846FDF724FD09
:105A980010BDD2060AD4DB6CBDE81040DB6C184799
:105AA8009007E7D01846FDF717FDF1E71846FDF710
:105AB800C1FD10BD806B08B5436D43F040034365DD
:105AC800836D43F004038365FDF7B4FD08BD00BF93
